:100000000C942A000C9434000C9434000C943400AA
:100010000C9434000C9434000C9434000C94340090
:100020000C9434000C9434000C9434000C94340080
:100030000C9434000C9434000C9434000C94340070
:100040000C9434000C9434000C9434000C94340060
:100050000C94340011241FBECFE5D4E0DEBFCDBF29
:100060000E9436000C941F030C940000CF93DF9382
:10007000CDB7DEB7AE970FB6F894DEBF0FBECDBFDB
:1000800087E390E02FEFFC01208388E390E0FC0100
:10009000108284E390E02FEFFC01208385E390E061
:1000A000FC01108286E290E026E230E0F901208136
:1000B0002468FC01208387E290E027E230E0F90128
:1000C00020812064FC0120838AE290E02AE230E073
:1000D000F90120812860FC01208380E490E0FC018C
:1000E000108289E290E02CE0FC01208380E090E027
:1000F000A0E8BFE38D839E83AF83B88720E030E024
:100100004AE753E46D817E818F8198850E94940235
:10011000DC01CB0189879A87AB87BC8720E030E080
:1001200040E85FE369857A858B859C850E94130290
:1001300088232CF481E090E09E878D873FC020E0EB
:100140003FEF4FE757E469857A858B859C850E9450
:10015000900218164CF520E030E040E251E46D8149
:100160007E818F8198850E949402DC01CB01BC01C5
:10017000CD010E941702DC01CB019E878D870FC045
:1001800089E190E0988B8F878F8598890197F1F7A7
:10019000988B8F878D859E8501979E878D878D850E
:1001A0009E85009769F714C069857A858B859C8543
:1001B0000E941702DC01CB019E878D878D859E856D
:1001C0009A8B898B89899A890197F1F79A8B898B08
:1001D00086E290E026E230E0F90120812064FC0113
:1001E0002083000086E290E0FC018081882F90E06F
:1001F000807499270097B1F784E290E0FC01808138
:10020000882F90E09A83898385E290E0FC018081C9
:10021000882F90E09C838B8388E390E02981FC0108
:10022000208385E390E02B81FC0120838CE290E029
:100230002981FC01208300008BE290E0FC01808199
:100240008823D1F380E090E0A0E8BFE38B8B9C8B08
:10025000AD8BBE8B20E030E04AE753E46B897C89AC
:100260008D899E890E949402DC01CB018F8B988F2F
:10027000A98FBA8F20E030E040E85FE36F89788D86
:10028000898D9A8D0E94130288232CF481E090E0DE
:100290009C8F8B8F3FC020E03FEF4FE757E46F8983
:1002A000788D898D9A8D0E94900218164CF520E069
:1002B00030E040E251E46B897C898D899E890E94FF
:1002C0009402DC01CB01BC01CD010E941702DC01CC
:1002D000CB019C8F8B8F0FC089E190E09E8F8D8F1B
:1002E0008D8D9E8D0197F1F79E8F8D8F8B8D9C8DBF
:1002F00001979C8F8B8F8B8D9C8D009769F714C015
:100300006F89788D898D9A8D0E941702DC01CB014F
:100310009C8F8B8F8B8D9C8D98A38F8F8F8D98A1A9
:100320000197F1F798A38F8F8CE290E02B81FC016D
:10033000208300008BE290E0FC0180818823D1F3D0
:1003400080E090E0A0E8BFE389A39AA3ABA3BCA39D
:1003500020E030E04AE753E469A17AA18BA19CA197
:100360000E949402DC01CB018DA39EA3AFA3B8A78A
:1003700020E030E040E85FE36DA17EA18FA198A569
:100380000E94130288232CF481E090E09AA789A7A9
:100390003FC020E03FEF4FE757E46DA17EA18FA162
:1003A00098A50E94900218164CF520E030E040E23B
:1003B00051E469A17AA18BA19CA10E949402DC0165
:1003C000CB01BC01CD010E941702DC01CB019AA731
:1003D00089A70FC089E190E09CA78BA78BA59CA55E
:1003E0000197F1F79CA78BA789A59AA501979AA7D2
:1003F00089A789A59AA5009769F7EACE6DA17EA184
:100400008FA198A50E941702DC01CB019AA789A7AA
:1004100089A59AA59EA78DA78DA59EA50197F1F701
:100420009EA78DA7D5CE2FD008F481E0089557D090
:1004300088F09F5790F0B92F9927B751A0F0D1F0CD
:10044000660F771F881F991F1AF0BA95C9F712C057
:10045000B13081F05ED0B1E008955BC0672F782F96
:100460008827B85F39F0B93FCCF3869577956795C3
:10047000B395D9F73EF490958095709561957F4F2F
:100480008F4F9F4F0895990F0008550FAA0BE0E872
:10049000FEEF16161706E807F907C0F01216130646
:1004A000E407F50798F0621B730B840B950B39F486
:1004B0000A2661F0232B242B252B21F408950A26EC
:1004C00009F4A140A6958FEF811D811D089557FD68
:1004D0009058440F551F59F05F3F71F04795880FB2
:1004E00097FB991F61F09F3F79F087950895121649
:1004F00013061406551FF2CF4695F1DF08C01616F5
:1005000017061806991FF1CF8695710561050894A5
:100510000895E894BB2766277727CB0197F90895BC
:10052000B2DF08F48FEF08950BD078C069D028F0BF
:100530006ED018F0952309F05AC05FC01124EACF9D
:10054000C6DFA0F3959FD1F3950F50E0551F629F32
:10055000F001729FBB27F00DB11D639FAA27F00D1C
:10056000B11DAA1F649F6627B00DA11D661F829F43
:100570002227B00DA11D621F739FB00DA11D621F28
:10058000839FA00D611D221F749F3327A00D611D45
:10059000231F849F600D211D822F762F6A2F112427
:1005A0009F5750408AF0E1F088234AF0EE0FFF1F7A
:1005B000BB1F661F771F881F91505040A9F79E3FB1
:1005C000510570F014C0A6CF5F3FECF3983EDCF30A
:1005D000869577956795B795F795E7959F5FC1F7EE
:1005E000FE2B880F911D9695879597F9089597F999
:1005F0009F6780E870E060E008959FEF80EC0895C9
:1006000000240A94161617061806090608950024F1
:100610000A9412161306140605060895092E03946B
:10062000000C11F4882352F0BB0F40F4BF2B11F4DF
:1006300060FF04C06F5F7F4F8F4F9F4F0895F89406
:02064000FFCFEA
:00000001FF
