:100000000C942A000C9434000C9434000C943400AA
:100010000C9434000C9434000C9434000C94340090
:100020000C9434000C9434000C9434000C94340080
:100030000C9434000C9434000C9434000C94340070
:100040000C9434000C9434000C9434000C94340060
:100050000C94340011241FBECFE5D4E0DEBFCDBF29
:100060000E9436000C9464000C940000CF93DF9340
:10007000CDB7DEB781E390E021E330E0F9012081E4
:100080002062FC0120838FE490E02FE430E0F9014E
:1000900020812268FC0120838EE490E02EE430E091
:1000A000F90120812A61FC01208386E490E023EF9E
:1000B00031E0FC01318320838AE490E02AEF30E0D4
:0C00C000FC0131832083FFCFF894FFCFB8
:00000001FF
