:100000000C942A000C9434000C9434000C943400AA
:100010000C9434000C9434000C9434000C94340090
:100020000C9434000C9434000C9434000C94340080
:100030000C9434000C9434000C9434000C94340070
:100040000C9434000C9434000C9434000C94340060
:100050000C94340011241FBECFE5D4E0DEBFCDBF29
:100060000E9436000C945F000C940000CF93DF9345
:10007000CDB7DEB784E390E024E330E0F9012081DE
:100080002E7FFC01208385E390E025E330E0F90139
:1000900020812160FC01208387E390E027E330E0AA
:1000A000F90120812160FC01208388E390E023E3B3
:1000B00030E0F90120812170FC012083F6CFF89413
:0200C000FFCF70
:00000001FF
